:100000000C9462000C948A000C948A000C948A0070
:100010000C948A000C948A000C948A000C948A0038
:100020000C948A000C948A000C948A000C948A0028
:100030000C948A000C948A000C948A000C948A0018
:100040000C9447020C948A000C94B7020C94910211
:100050000C948A000C948A000C948A000C948A00F8
:100060000C948A000C948A000000000023002600F3
:10007000290000000000240027002A0000000000E2
:10008000250028002B0004040404040404040202D4
:100090000202020203030303030301020408102007
:1000A0004080010204081020010204081020000012
:1000B0000008000201000003040700000000000027
:1000C00000002E0311241FBECFEFD8E0DEBFCDBF4E
:1000D00011E0A0E0B1E0EAE7F6E102C005900D9280
:1000E000A43FB107D9F722E0A4EFB1E001C01D920F
:1000F000AF3AB207E1F710E0C2E6D0E004C02197C2
:10010000FE010E94EC09C136D107C9F70E94C20363
:100110000C943B0B0C94000090E0FC01E255FF4F67
:100120002491FC01E656FF4F3491FC01EA57FF4F42
:10013000E491EE2309F43CC0222339F1233091F0FD
:1001400038F42130A9F0223001F584B58F7D12C03A
:10015000273091F02830A1F02430B9F4809180004C
:100160008F7D03C0809180008F77809380000DC0C9
:1001700084B58F7784BD09C08091B0008F7703C0AC
:100180008091B0008F7D8093B000F0E0EE0FFF1FF4
:10019000E458FF4FA591B4919FB7F894611104C042
:1001A0008C913095382302C0EC913E2B3C939FBF3D
:1001B0000895CF93DF9390E0FC01E656FF4F249122
:1001C000FC01EA57FF4F8491882361F190E0880F8A
:1001D000991FFC01EE58FF4FC591D491FC01E458E2
:1001E000FF4FA591B491611109C09FB7F894888120
:1001F000209582238883EC912E230BC0623061F41A
:100200009FB7F8948881322F309583238883EC91AF
:100210002E2B2C939FBF06C08FB7F894E8812E2B0E
:1002200028838FBFDF91CF910895CF92DF92EF9215
:10023000FF920F931F93CF93DF936C017A018B0191
:10024000C0E0D0E0CE15DF0581F0D8016D918D01C1
:10025000D601ED91FC910190F081E02DC601099548
:10026000892B11F02196EECF7E01C701DF91CF914E
:100270001F910F91FF90EF90DF90CF900895089518
:1002800080E090E00895FC01538D448D252F30E0EF
:10029000842F90E0821B930B541710F0CF96089593
:1002A00001970895FC01918D828D981761F0828DE0
:1002B000DF01A80FB11D5D968C91928D9F5F9F739A
:1002C000928F90E008958FEF9FEF0895FC01918D3C
:1002D000828D981731F0828DE80FF11D858D90E0A9
:1002E00008958FEF9FEF0895FC01918D228D892F46
:1002F00090E0805C9F4F821B91098F73992708952E
:1003000081E092E00E94740121E0892B09F420E051
:10031000822F0895FC01848DDF01A80FB11DA35A1F
:10032000BF4F2C91848D90E001968F739927848F15
:10033000A689B7892C93A089B1898C918370806438
:100340008C93938D848D981306C00288F389E02DD9
:1003500080818F7D80830895EF92FF920F931F938A
:10036000CF93DF93EC0181E0888F9B8D8C8D981368
:1003700005C0E889F989808185FD26C0F62E0B8DA0
:1003800010E00F5F1F4F0F731127E02E8C8DE812C6
:100390000CC00FB607FCFACFE889F989808185FF88
:1003A000F5CFCE010E948A01F1CF8B8DFE01E80FBF
:1003B000F11DE35AFF4FF0829FB7F8940B8FEA8943
:1003C000FB89808180620AC09FB7F894EE89FF891B
:1003D0006083E889F98980818370806480839FBF0E
:1003E00081E090E0DF91CF911F910F91FF90EF900E
:1003F0000895CF93DF93EC01888D8823C9F0EA89B3
:10040000FB89808185FD05C0A889B9898C9186FD0D
:100410000FC00FB607FCF5CF808185FFF2CFA8890A
:10042000B9898C9185FFEDCFCE010E948A01E7CF7B
:10043000DF91CF91089580E090E0892B29F00E9410
:10044000800181110C9400000895009769F0FC016F
:1004500001900020E9F73197AF01481B590BBC010F
:1004600081E092E00C94150180E090E00895CF9334
:10047000DF930E942502EC0188E191E00E942502B1
:100480008C0F9D1FDF91CF9108950E942F0B1F921B
:100490000F920FB60F9211242F933F938F939F9338
:1004A000AF93BF938091FD019091FE01A091FF0158
:1004B000B09100023091FC0123E0230F2D3720F48E
:1004C0000196A11DB11D05C026E8230F0296A11DAE
:1004D000B11D2093FC018093FD019093FE01A09338
:1004E000FF01B09300028091F8019091F901A09171
:1004F000FA01B091FB010196A11DB11D8093F80195
:100500009093F901A093FA01B093FB01BF91AF91D1
:100510009F918F913F912F910F900FBE0F901F9041
:1005200018951F920F920FB60F9211242F933F939D
:100530004F935F936F937F938F939F93AF93BF93EB
:10054000EF93FF9381E092E00E948A01FF91EF9187
:10055000BF91AF919F918F917F916F915F914F91DB
:100560003F912F910F900FBE0F901F9018951F92E3
:100570000F920FB60F9211242F938F939F93EF93A7
:10058000FF93E0911102F09112028081E091170235
:10059000F091180282FD12C0908180911A028F5F43
:1005A0008F7320911B02821751F0E0911A02F0E044
:1005B000EF5FFD4F958F80931A0201C08081FF91FC
:1005C000EF919F918F912F910F900FBE0F901F90E1
:1005D0001895CF92DF92EF92FF920F931F93E82F1F
:1005E000F92F05C0015011092109310961F19081EC
:1005F00096239417B9F305C0015011092109310957
:1006000011F1908196239413F7CFC12CD12CE12CBA
:10061000F12C0AC08FEFC81AD80AE80AF80A0C159C
:100620001D052E053F0579F080818623841791F3FF
:100630006C2D7D2D8E2D9F2D1F910F91FF90EF9092
:10064000DF90CF90089560E070E080E090E01F912F
:100650000F91FF90EF90DF90CF900895CF9310927D
:1006600004021092030288EE93E0A0E0B0E08093D1
:10067000050290930602A0930702B09308028AE055
:1006800091E0909302028093010285EC90E09093B8
:100690000E0280930D0284EC90E090931002809300
:1006A0000F0280EC90E0909312028093110281EC93
:1006B00090E0909314028093130282EC90E0909368
:1006C00016028093150286EC90E0909318028093B6
:1006D000170210921A0210921B0210921C02109222
:1006E0001D0283E080939E02C1E0C0939F0262E0FE
:1006F00070E083E090E00E94F2099093A102809361
:10070000A00261E070E083E090E00E94F209909323
:10071000A3028093A20261E070E083E090E00E9477
:10072000F2099093A5028093A402C093A6021092AE
:10073000A7021092A8021092A9021092AA0220E029
:1007400080919E022817E0F4822F90E0E091A202AF
:10075000F091A302E80FF91F2083E091A402F09129
:10076000A502E80FF91F2083880F991FE091A002CE
:10077000F091A102E80FF91F118210822F5FE0CFE4
:10078000CF910895CF93DF93CDB7DEB7A2970FB681
:10079000F894DEBF0FBECDBF789484B5826084BD6F
:1007A00084B5816084BD85B5826085BD85B5816075
:1007B00085BD80916E00816080936E0010928100F3
:1007C00080918100826080938100809181008160AE
:1007D000809381008091800081608093800080916F
:1007E000B10084608093B1008091B00081608093FB
:1007F000B00080917A00846080937A0080917A00C2
:10080000826080937A0080917A00816080937A0080
:1008100080917A00806880937A001092C10061E034
:1008200085E00E94D90061E08BE00E94D90061E080
:100830008AE00E94D90061E089E00E94D90061E06D
:1008400088E00E94D90060E083E00E94D900E09136
:100850001102F091120282E08083E0910D02F0918A
:100860000E021082E0910F02F09110028FEC808353
:1008700010921902E0911502F091160286E0808331
:10088000E0911302F0911402808180618083E091F5
:100890001302F0911402808188608083E09113023A
:1008A000F0911402808180688083E0911302F091BE
:1008B000140280818F7D80832AE0822E912CA12CCE
:1008C000B12C60E085E00E948C0083E090E001970D
:1008D000F1F761E085E00E948C0083E290E00197EF
:1008E000F1F760E085E00E948C00EDE9F0E06491B2
:1008F000E9E8F0E08491E82FF0E0EE0FFF1FE859FF
:10090000FF4F8591949100E412E42FE030E0462FF0
:100910000E94E902611571058105910549F0DC012C
:10092000CB010196A11DB11DBC01CD019F7003C07B
:1009300060E070E0CB010E94A30826E933E44BE0BD
:100940005DE30E94580920E030E040E05FE30E9450
:1009500058096093F4017093F5018093F601909328
:10096000F7010E946B0820919E024091A6023091EF
:10097000A0025091A102E32FF52FE40FF11DE40F27
:10098000F11D40815181DB01A41BB50B2D01BB0F73
:1009900066087708C090A702D090A802E090A9024C
:1009A000F090AA02C40CD51CE61CF71CC092A7024A
:1009B000D092A802E092A902F092AA027183608309
:1009C0008091A602E091A402F091A502E80FF11D2A
:1009D0008081811110C021508091A602E091A40273
:1009E000F091A502E80FF11D8081821708F0AFC0D9
:1009F00090E030E0A8C090E03FEF380FF090A00208
:100A00000091A102E090A6026091A2027091A3025F
:100A1000432F50E0FB01E40FF51F1081AF2DB02FE5
:100A2000AE0DB11DAE0DB11DEF2DF02FE10FF11D7B
:100A3000E10FF11D0D90BC91A02D0190F081E02DF2
:100A4000AE17BF0774F5FB01E80FF11D1083E091AD
:100A5000A202F091A302E40FF51F8081E091A402AD
:100A6000F091A502E80FF11D80818F5F8083809156
:100A7000A6026091A2027091A302FB01E40FF51F90
:100A800080838091A602E091A402F091A502E80F74
:100A9000F11D808181508083832F91E03111ACCF93
:100AA00056C0911154C097CFF090A0020091A102BE
:100AB000E090A6026091A2027091A302AC014F5F88
:100AC0005F4FFB01E40FF51F1081AF2DB02FAE0D6E
:100AD000B11DAE0DB11DEF2DF02FE10FF11DE10F96
:100AE000F11D0D90BC91A02D0190F081E02DEA1731
:100AF000FB076CF5FB01E80FF91F1083E091A202E0
:100B0000F091A302E40FF51F8081E091A402F0911F
:100B1000A502E80FF11D8081815080838091A6029B
:100B2000E091A202F091A302E40FF51F808380916F
:100B3000A602E091A402F091A502E80FF11D8081C8
:100B40008F5F8083CA01821793070CF4ADCF809129
:100B5000A6028F5F8093A60290919E02891302C025
:100B60001092A60280919F02E091A202F091A3024E
:100B7000E80FF11D80812091A0029091A102E22F47
:100B8000F92FE80FF11DE80FF11D60817181072E2B
:100B9000000C880B990B0E94A3089B01AC010E94DA
:100BA000880720E030E443E854E40E94F9076093AA
:100BB000F4017093F5018093F6019093F701B0E48E
:100BC000B0937C0080917A00806480937A00809159
:100BD0007A0086FDFCCF80917800809179008BE1CE
:100BE00091E00E942502C090F401D090F501E090C0
:100BF000F601F090F701A7019601C701B6010E9426
:100C0000C509882319F08EE291E01AC02601370148
:100C1000E89477F82FEF3FEF4FE75FE7C301B201AA
:100C20000E94C50981110FC02FEF3FEF4FE75FE72B
:100C3000C301B2010E94F40718162CF482E391E07C
:100C40000E9425029BC02FEF3FEF4FE75FE4C701F3
:100C5000B6010E94530918161CF486E391E0F0CF08
:100C60002FEF3FEF4FE75FECC701B6010E94F4079B
:100C700087FDF3CF20E030E0A901C701B6010E9453
:100C8000F40787FF09C06DE281E092E00E94AC01A9
:100C9000F7FAF094F7F8F0942AE037ED43EA5BE3D3
:100CA000C701B6010E9488072B013C010E9472080F
:100CB0006B017C010E94A1089B01AC01C301B20140
:100CC0000E9487071B012C0119A28E010F5D1F4F87
:100CD0000AA3712EC701B601A50194010E94CA0999
:100CE00069017A01605DF80162938F01232B242B47
:100CF000252B81F7CF010E9425026EE281E092E070
:100D00000E94AC0183E0F82EFA94FF20B9F120E0B4
:100D100030E040E251E4C201B1010E9458091B01D8
:100D20002C010E9472089B0140E050E019A20AA128
:100D3000172D662EC32ED42EE52ECA01B901A501AA
:100D400094010E94CA09605DD8016E938D0121153E
:100D500031054105510589F7CD010E942502662D17
:100D60007C2D8D2D9E2D0E94A1089B01AC01C201FE
:100D7000B1010E9487071B012C01C6CF8AE391E0D5
:100D80000E943702C090F401D090F501E090F60186
:100D9000F090F70120E030E040E050E4C701B601F8
:100DA0000E94530987FD13C061E08BE00E948C0014
:100DB00061E08AE00E948C0061E089E00E948C0082
:100DC00061E088E00E948C008DE391E01CC020E08F
:100DD00030E040EC5FE3C701B6010E9453091816EA
:100DE000BCF460E08BE00E948C0061E08AE00E942D
:100DF0008C0061E089E00E948C0061E088E00E9444
:100E00008C008BE791E00E9437028BE491E020C0D8
:100E100020E030E040E85FE3C701B6010E945309DB
:100E20001816DCF460E08BE00E948C0060E08AE041
:100E30000E948C0061E089E00E948C0061E088E003
:100E40000E948C008BE791E00E94370288E891E0D5
:100E50000E9437028BE591E024C020E030E040E0C2
:100E60005FE3C701B6010E9453091816FCF460E065
:100E70008BE00E948C0060E08AE00E948C0060E0C1
:100E800089E00E948C0061E088E00E948C008BE782
:100E900091E00E94370288E891E00E94370287E9DA
:100EA00091E00E9437028AE691E028C020E030E01D
:100EB00040E05FE3C701B6010E94F40787FF20C04E
:100EC00060E08BE00E948C0060E08AE00E948C0071
:100ED00060E089E00E948C0060E088E00E948C0065
:100EE0008BE791E00E94370288E891E00E94370288
:100EF00087E991E00E94370285EA91E00E9437027B
:100F000085EB91E00E9437020E941B02DACC505818
:100F1000BB27AA270E949F070C9419090E940B095E
:100F200038F00E94120920F039F49F3F19F426F49A
:100F30000C9408090EF4E095E7FB0C940209E92FE4
:100F40000E942A0958F3BA176207730784079507A6
:100F500020F079F4A6F50C944C090EF4E0950B2ED4
:100F6000BA2FA02D0B01B90190010C01CA01A001FB
:100F70001124FF27591B99F0593F50F4503E68F156
:100F80001A16F040A22F232F342F4427585FF3CF97
:100F9000469537952795A795F0405395C9F77EF468
:100FA0001F16BA0B620B730B840BBAF09150A1F0B1
:100FB000FF0FBB1F661F771F881FC2F70EC0BA0F37
:100FC000621F731F841F48F4879577956795B795BF
:100FD000F7959E3F08F0B0CF9395880F08F09927BA
:100FE000EE0F9795879508950E94DE0808F481E03A
:100FF00008950E940D080C9419090E94120958F0D6
:101000000E940B0940F029F45F3F29F00C9402097B
:1010100051110C944D090C9408090E942A0968F397
:101020009923B1F3552391F3951B550BBB27AA27A1
:1010300062177307840738F09F5F5F4F220F331FDB
:10104000441FAA1FA9F335D00E2E3AF0E0E832D0A3
:1010500091505040E695001CCAF72BD0FE2F29D0A6
:10106000660F771F881FBB1F261737074807AB0778
:10107000B0E809F0BB0B802DBF01FF2793585F4FED
:101080003AF09E3F510578F00C9402090C944D09FA
:101090005F3FE4F3983ED4F3869577956795B795CF
:1010A000F7959F5FC9F7880F911D9695879597F9DA
:1010B0000895E1E0660F771F881FBB1F6217730753
:1010C0008407BA0720F0621B730B840BBA0BEE1F68
:1010D00088F7E09508950E9472086894B1110C9405
:1010E0004D0908950E94320988F09F5798F0B92F52
:1010F0009927B751B0F0E1F0660F771F881F991F4D
:101100001AF0BA95C9F714C0B13091F00E944C0999
:10111000B1E008950C944C09672F782F8827B85FA9
:1011200039F0B93FCCF3869577956795B395D9F7A4
:101130003EF490958095709561957F4F8F4F9F4FAE
:101140000895E89409C097FB3EF4909580957095BA
:1011500061957F4F8F4F9F4F9923A9F0F92F96E903
:10116000BB279395F695879577956795B795F11178
:10117000F8CFFAF4BB0F11F460FF1BC06F5F7F4F15
:101180008F4F9F4F16C0882311F096E911C0772327
:1011900021F09EE8872F762F05C0662371F096E830
:1011A000862F70E060E02AF09A95660F771F881FFF
:1011B000DAF7880F9695879597F90895990F0008A3
:1011C000550FAA0BE0E8FEEF16161706E807F90719
:1011D000C0F012161306E407F50798F0621B730BB4
:1011E000840B950B39F40A2661F0232B242B252B35
:1011F00021F408950A2609F4A140A6958FEF811DD8
:10120000811D089597F99F6780E870E060E0089578
:101210009FEF80EC089500240A941616170618060E
:101220000906089500240A941216130614060506EA
:101230000895092E0394000C11F4882352F0BB0F7B
:1012400040F4BF2B11F460FF04C06F5F7F4F8F4FDE
:101250009F4F089557FD9058440F551F59F05F3F19
:1012600071F04795880F97FB991F61F09F3F79F0C8
:1012700087950895121613061406551FF2CF46954A
:10128000F1DF08C0161617061806991FF1CF8695CC
:101290007105610508940895E894BB2766277727B0
:1012A000CB0197F908950E94DE0808F48FEF0895A6
:1012B0000E946B090C9419090E940B0938F00E94D6
:1012C000120920F0952311F00C9402090C940809DE
:1012D00011240C944D090E942A0970F3959FC1F3C3
:1012E000950F50E0551F629FF001729FBB27F00DD4
:1012F000B11D639FAA27F00DB11DAA1F649F662729
:10130000B00DA11D661F829F2227B00DA11D621F77
:10131000739FB00DA11D621F839FA00D611D221F31
:10132000749F3327A00D611D231F849F600D211D15
:10133000822F762F6A2F11249F5750409AF0F1F098
:1013400088234AF0EE0FFF1FBB1F661F771F881F01
:1013500091505040A9F79E3F510580F00C9402092E
:101360000C944D095F3FE4F3983ED4F3869577954E
:101370006795B795F795E7959F5FC1F7FE2B880FA7
:10138000911D9695879597F908950E94DE08880B20
:10139000990B0895A1E21A2EAA1BBB1BFD010DC0DB
:1013A000AA1FBB1FEE1FFF1FA217B307E407F50715
:1013B00020F0A21BB30BE40BF50B661F771F881FF1
:1013C000991F1A9469F760957095809590959B0187
:1013D000AC01BD01CF010895EE0FFF1F0590F49100
:1013E000E02D09940F931F93CF93DF93869F800185
:1013F000879F100D969F100D1124C8010E940E0AA0
:10140000EC01009729F0A80160E070E00E94340B25
:10141000CE01DF91CF911F910F9108950F931F93EC
:10142000CF93DF938230910510F482E090E0E09159
:10143000AD02F091AE0220E030E0A0E0B0E03097E5
:1014400019F1408151810281138148175907C8F071
:101450008417950769F4109731F012960C93129740
:1014600013961C9327C00093AD021093AE0222C0C6
:101470002115310519F04217530718F49A01BD01DF
:10148000EF01DF01F801DBCF21153105F9F0281B51
:10149000390B2430310580F48A819B8161157105F7
:1014A00021F0FB019383828304C09093AE0280936A
:1014B000AD02FE01329644C0FE01E20FF31F81939C
:1014C000919322503109398328833AC02091AB028D
:1014D0003091AC02232B41F42091020130910301A1
:1014E0003093AC022093AB022091000130910101B6
:1014F0002115310541F42DB73EB7409104015091BB
:101500000501241B350BE091AB02F091AC02E21710
:10151000F307A0F42E1B3F0B2817390778F0AC0116
:101520004E5F5F4F2417350748F04E0F5F1F5093F3
:10153000AC024093AB028193919302C0E0E0F0E0F3
:10154000CF01DF91CF911F910F910895CF93DF933A
:10155000009709F481C0FC01329713821282A09196
:10156000AD02B091AE02109781F420813181820FDB
:10157000931F2091AB023091AC022817390751F527
:10158000F093AC02E093AB0267C0ED0120E030E0E5
:10159000CE17DF0740F44A815B819E01411551055A
:1015A000F1F0EA01F5CFD383C28340815181840FEA
:1015B000951FC817D90759F488819981840F951F01
:1015C0000296918380838A819B81938382832115F4
:1015D000310529F4F093AE02E093AD023DC0E9017C
:1015E000FB83EA8349915991C40FD51FEC17FD077E
:1015F00061F480819181840F951F0296E90199839E
:101600008883828193819B838A83E0E0F0E0129655
:101610008D919C911397009719F0FD01DC01F7CF94
:101620008D919C9111979D012E5F3F4F820F931FCB
:101630002091AB023091AC022817390769F430973A
:1016400029F41092AE021092AD0202C013821282EF
:10165000B093AC02A093AB02DF91CF91089581E0EB
:1016600090E0F8940C943B0BDC0101C06D93415069
:0A1670005040E0F70895F894FFCF12
:10167A000000AF02800000000000AC011501430128
:10168A00F9017401520166010D0A0044697374611B
:10169A006E6365204D656173757265643D006E61A8
:1016AA006E00696E66006F766600636D005265644F
:1016BA00206C65643A204869676800677265656EE0
:1016CA00206C65643A204869676800626C75652019
:1016DA006C65643A20486967680079656C6C6F7755
:1016EA00206C65643A204869676800526564206C1A
:1016FA0065643A204C4F5700677265656E206C65C9
:10170A00643A204C4F5700626C7565206C65643AE8
:10171A00204C4F570079656C6C6F77206C65643A82
:10172A00204C4F57002D2D2D2D2D2D2D2D2D2D2DAE
:10173A002D2D2D2D2D2D2D2D2D2D2D2D2D2D2D2DCF
:10174A002D2D2D2D2D2D2D2D2D2D2D2D2D2D2D2DBF
:10175A002D2D2D2D2D2D2D2D2D2D2D2D2D2D2D2DAF
:04176A002D2D2D00F4
:00000001FF
