:100000000C9468000C9490000C9490000C94900058
:100010000C9490000C9490000C9490000C94900020
:100020000C9490000C9490000C9490000C94900010
:100030000C9490000C9490000C9490000C94900000
:100040000C948F050C9490000C94FF050C94D9052A
:100050000C9490000C9490000C9490000C949000E0
:100060000C9490000C949000005EBCE2613FDD8334
:10007000C29C7E20A3FD1F41009D23BE46DB65F888
:100080008C11AF32CA57E974000000002500280027
:100090002B0000000000240027002A0000000000C0
:1000A00023002600290004040404040404040202BA
:1000B00002020202030303030303010204081020E7
:1000C00040800102040810200102040810203106BB
:1000D00011241FBECFEFD8E0DEBFCDBF11E0A0E0FE
:1000E000B1E0E4E1F8E102C005900D92A63EB1074F
:1000F000D9F722E0A6EEB1E001C01D92A83BB207FD
:10010000E1F710E0C8E6D0E004C02197FE010E94AC
:10011000FD0BC736D107C9F70E94D0060C94080C16
:100120000C9400003FB7F8948091ED019091EE019E
:10013000A091EF01B091F00126B5A89B05C02F3F1B
:1001400019F00196A11DB11D3FBFBA2FA92F982FFD
:100150008827820F911DA11DB11DBC01CD0142E078
:10016000660F771F881F991F4A95D1F708958F92C0
:100170009F92AF92BF92CF92DF92EF92FF926B016C
:100180007C010E9492004B015C01C114D104E10486
:10019000F104F1F00E949200DC01CB018819990969
:1001A000AA09BB09883E9340A105B10570F321E07F
:1001B000C21AD108E108F10888EE880E83E0981E83
:1001C000A11CB11CC114D104E104F10419F7DDCF65
:1001D000FF90EF90DF90CF90BF90AF909F908F9067
:1001E0000895CF92DF92EF92FF920F931F93CF93D8
:1001F000DF936C017A018B01C0E0D0E0CE15DF0502
:1002000081F0D8016D918D01D601ED91FC910190A5
:10021000F081E02DC6010995892B11F02196EECFD2
:100220007E01C701DF91CF911F910F91FF90EF9059
:10023000DF90CF900895089580E090E00895FC014C
:10024000538D448D252F30E0842F90E0821B930B3B
:10025000541710F0CF96089501970895FC01918DE1
:10026000828D981761F0828DDF01A80FB11D5D9618
:100270008C91928D9F5F9F73928F90E008958FEF86
:100280009FEF0895FC01918D828D981731F0828D3A
:10029000E80FF11D858D90E008958FEF9FEF089591
:1002A000FC01918D228D892F90E0805C9F4F821BF5
:1002B00091098F739927089589EF91E00E94500169
:1002C00021E0892B09F420E0822F0895FC01848D20
:1002D000DF01A80FB11DA35ABF4F2C91848D90E070
:1002E00001968F739927848FA689B7892C93A0894B
:1002F000B1898C91837080648C93938D848D9813D5
:1003000006C00288F389E02D80818F7D8083089567
:10031000EF92FF920F931F93CF93DF93EC0181E055
:10032000888F9B8D8C8D981305C0E889F989808111
:1003300085FD26C0F62E0B8D10E00F5F1F4F0F734B
:100340001127E02E8C8DE8120CC00FB607FCFACFF7
:10035000E889F989808185FFF5CFCE010E94660189
:10036000F1CF8B8DFE01E80FF11DE35AFF4FF082B4
:100370009FB7F8940B8FEA89FB89808180620AC05D
:100380009FB7F894EE89FF896083E889F9898081B5
:100390008370806480839FBF81E090E0DF91CF9184
:1003A0001F910F91FF90EF900895CF93DF93EC0191
:1003B000888D8823C9F0EA89FB89808185FD05C085
:1003C000A889B9898C9186FD0FC00FB607FCF5CFBF
:1003D000808185FFF2CFA889B9898C9185FFEDCF07
:1003E000CE010E946601E7CFDF91CF91089580E0B2
:1003F00090E0892B29F00E945C0181110C9400008F
:100400000895DC0180E0615098F02D91982F92279B
:10041000E92FEF70F0E0E859FF4F249192959F701B
:10042000E92FF0E0E858FF4FE491822F8E27EBCFC1
:100430000895FC0190810180F281E02DF894818182
:10044000892B81832281892F809528232283A7E00D
:10045000B0E01197F1F7218182238183A3E2B0E01C
:100460001197F1F780817894EFECF0E03197F1F794
:10047000982381E009F480E00895FC0190810180D7
:10048000F281E02D892F809560FF12C0F8942281BF
:10049000822382838181892B8183A3E2B0E011973B
:1004A000F1F78281982B9283789487ED90E011C0C8
:1004B000F8942281822382838181892B8183AFEF0B
:1004C000B0E01197F1F78281982B928378948FE0B6
:1004D00090E00197F1F70895DF92EF92FF920F936A
:1004E0001F93CF93DF93EC01D62EE42E08E010E0AB
:1004F000FF24F39461E08D2D8F2109F460E0CE019B
:100500000E943D02FF0C01501109A1F7E11010C03B
:10051000F894E981FA81918188818095892381838A
:10052000E981FA81928188818095892382837894F8
:10053000DF91CF911F910F91FF90EF90DF90089581
:10054000EF92FF920F931F93CF93DF938C017B0168
:1005500040E065E50E946C02E70188E0E80EF11CCE
:10056000699140E0C8010E946C02CE15DF05C1F719
:10057000DF91CF911F910F91FF90EF900895DC01D3
:100580002C911196ED91FC911297F8948181922F04
:1005900090958923818378948DE743E050E08150E2
:1005A00021F1DA011197F1F730813223C1F3F89488
:1005B0008281892382838181822B81837894ABE736
:1005C000B7E01197F1F7F89481819823918383E143
:1005D00091E00197F1F78081282381E009F080E024
:1005E0007894E3E6F6E03197F1F70895AF92BF9281
:1005F000CF92DF92EF92FF920F931F93CF93DF93EF
:100600008B01BC0180919C0290919D020E94A002EE
:1006100040E06EEB80919C0290919D020E946C02E2
:10062000E801680189E0C80ED11CA0909C02B0903E
:100630009D0288E0E82EF12C10E001E0C5010E9447
:1006400019028111102B000F81E0E81AF108B1F7AF
:100650001993CC16DD0649F780919C0290919D027A
:100660000E94BF0291E0813009F090E0892FDF9174
:10067000CF911F910F91FF90EF90DF90CF90BF909F
:10068000AF9008950F931F93CF93DF93CDB7DEB74D
:1006900029970FB6F894DEBF0FBECDBF8C018091B5
:1006A0009C0290919D020E94BF02882309F1BE0125
:1006B0006F5F7F4FC8010E94F6028823C9F068E08F
:1006C000CE0101960E9401029985891311C08D8186
:1006D0008F3361F020F48F3159F489E00CC08F35ED
:1006E00019F08F3739F004C08BE005C08AE003C0F1
:1006F00080E001C08CE029960FB6F894DEBF0FBEF3
:10070000CDBFDF91CF911F910F910895009769F0B0
:10071000FC0101900020E9F73197AF01481B590B0C
:10072000BC0189EF91E00C94F10080E090E0089525
:100730008F929F92AF92BF920F931F93CF93DF93AD
:10074000CDB7DEB7A1970FB6F894DEBF0FBECDBF11
:1007500019A2423008F44AE08E010F5D1F4F842E2B
:10076000912CA12CB12CA50194010E94C70BE62F5E
:10077000B901CA0101501109EA3014F4E05D01C069
:10078000E95CD801EC93232B242B252B61F7C801BE
:100790000E948603A1960FB6F894DEBF0FBECDBFB0
:1007A000DF91CF911F910F91BF90AF909F908F904D
:1007B00008950C9486038F929F92AF92BF92CF922E
:1007C000DF92EF92FF920F931F93CF93DF936B0112
:1007D0007C01142F9B01AC010E94AE0B882319F001
:1007E00088E191E027C046015701E894B7F82FEF60
:1007F0003FEF4FE75FE7C501B4010E94AE0B8111E7
:100800000DC02FEF3FEF4FE75FE7C501B4010E9436
:10081000E40918161CF48CE191E00CC02FEF3FEFB7
:100820004FE75FE4C701B6010E943C0B181684F441
:1008300080E291E0DF91CF911F910F91FF90EF90B7
:10084000DF90CF90BF90AF909F908F900C948603D5
:100850002FEF3FEF4FE75FECC701B6010E94E409BD
:1008600087FDE6CF20E030E0A901C701B6010E9474
:10087000E40987FF0BC06DE289EF91E00E948801D7
:10088000EC01F7FAF094F7F8F09402C0C0E0D0E081
:1008900000E060E070E080E09FE3101741F020E0AE
:1008A00030E040E251E40E94E9090F5FF6CFA70172
:1008B00096010E9478096B017C010E945B0A4B0142
:1008C0005C014AE00E949803C80FD91F1123B9F1B7
:1008D000C501B4010E948A0A9B01AC01C701B6019F
:1008E0000E9477096B017C016EE289EF91E00E9422
:1008F0008801C80FD91F20E030E040E251E4C70171
:10090000B6010E94410B4B015C010E945B0A6B0126
:10091000E12CF12C4AE0C701B6010E949803C80FF0
:10092000D91FC701B6010E948A0A9B01AC01C5010B
:10093000B4010E9477096B017C011150E1F6CE01F0
:10094000DF91CF911F910F91FF90EF90DF90CF90AB
:10095000BF90AF909F908F900895CF92DF92EF92CB
:10096000FF92CF93DF9397FF1BC06B017C016DE279
:1009700089EF91E00E948801EC0166277727CB017F
:100980006C197D098E099F094AE00E9498038C0F1B
:100990009D1FDF91CF91FF90EF90DF90CF90089552
:1009A0004AE0DF91CF91FF90EF90DF90CF900C94D1
:1009B0009803BF92CF92DF92EF92FF920F931F9313
:1009C000CF93DF93EC016B018D85811105C0CE01C2
:1009D0000E94BF02811105C01B861D861C8680E017
:1009E00060C040E060EFCE010E946C0201E0E12CAB
:1009F000B12C11E0CE010E941902F82ECE010E9406
:100A0000190291E0F91203C08130B1F434C02E2DE7
:100A100030E0F8121BC08B85181738F4FE01E20F86
:100A2000F31F8381802341F402C0811729F0F12C48
:100A3000193058F41C8709C0FE01EE0DF11D8381A9
:100A4000802B8383FF24F39409C0B12EFE01E20FB3
:100A5000F31F9381802F8095892383836F2DCE018F
:100A60000E943D021F5F000F11F4E39401E087E054
:100A70008E1508F0BFCF113408F4AECFBB86B1108D
:100A800002C081E08D878B81882309F4A5CFDE0128
:100A90001396F6012B968D918193CA17DB07D9F730
:100AA00081E0DF91CF911F910F91FF90EF90DF9048
:100AB000CF90BF9008951F93CF93DF93182FE091AD
:100AC0009C02F0919D02138615861486DF011B9609
:100AD00033961E92EA17FB07E1F7C0E061EF71E081
:100AE00080919C0290919D020E94D904D82F882366
:100AF00071F01C1309C067E081EF91E00E940102D0
:100B00009091F801891721F0CF5F1C1738F7D0E0DA
:100B10008D2FDF91CF911F9108950E94030C1F929A
:100B20000F920FB60F9211242F933F938F939F93A1
:100B3000AF93BF938091E9019091EA01A091EB01FD
:100B4000B091EC013091E80123E0230F2D3720F420
:100B50000196A11DB11D05C026E8230F0296A11D17
:100B6000B11D2093E8018093E9019093EA01A093DD
:100B7000EB01B093EC018091ED019091EE01A09119
:100B8000EF01B091F0010196A11DB11D8093ED011F
:100B90009093EE01A093EF01B093F001BF91AF915C
:100BA0009F918F913F912F910F900FBE0F901F90AB
:100BB00018951F920F920FB60F9211242F933F9307
:100BC0004F935F936F937F938F939F93AF93BF9355
:100BD000EF93FF9389EF91E00E946601FF91EF91FF
:100BE000BF91AF919F918F917F916F915F914F9145
:100BF0003F912F910F900FBE0F901F9018951F924D
:100C00000F920FB60F9211242F938F939F93EF9310
:100C1000FF93E0910902F0910A028081E0910F02B6
:100C2000F091100282FD12C09081809112028F5FBC
:100C30008F7320911302821751F0E0911202F0E0BD
:100C4000E750FE4F958F8093120201C08081FF9183
:100C5000EF919F918F912F910F900FBE0F901F904A
:100C60001895CF93DF931092FC011092FB0188EE50
:100C700093E0A0E0B0E08093FD019093FE01A0938B
:100C8000FF01B09300028AE091E09093FA01809313
:100C9000F90185EC90E0909306028093050284ECC4
:100CA00090E0909308028093070280EC90E090938C
:100CB0000A028093090281EC90E090930C028093E9
:100CC0000B0282EC90E090930E0280930D0286EC72
:100CD00090E09093100280930F02109212021092F3
:100CE00013021092140210921502EEEBF0E0249120
:100CF000EAEAF0E084918823C1F090E0880F991F20
:100D0000FC01EE56FF4FC591D491FC01E857FF4F0F
:100D1000A591B4919FB7F8948881E22FE0958E2336
:100D200088838C91E823EC939FBFEEEBF0E0E49195
:100D3000E093AA02EAEAF0E0E491F0E0EE0FFF1F90
:100D4000E456FF4F859194919093AC028093AB024F
:100D50001092B5021092B7021092B602E5EBF2E0E3
:100D6000129282E0ED3AF807D9F78AEA92E090937E
:100D70009D0280939C0210929A0210929B02109204
:100D8000960289E08093970281E080939802809395
:100D900099021092A9021092A802DF91CF910895B2
:100DA000CF93DF93CDB7DEB729970FB6F894DEBFA8
:100DB0000FBECDBF789484B5826084BD84B5816058
:100DC00084BD85B5826085BD85B5816085BD809116
:100DD0006E00816080936E0010928100809181008E
:100DE0008260809381008091810081608093810086
:100DF000809180008160809380008091B100846048
:100E00008093B1008091B00081608093B0008091A8
:100E10007A00846080937A0080917A008260809367
:100E20007A0080917A00816080937A0080917A00C4
:100E3000806880937A001092C10060ED77E080E0D6
:100E400090E00E94B700E0910902F0910A0282E06E
:100E50008083E0910502F09106021082E091070282
:100E6000F09108028FEC808310921102E0910D0244
:100E7000F0910E0286E08083E0910B02F0910C026B
:100E8000808180618083E0910B02F0910C0280816F
:100E900088608083E0910B02F0910C028081806871
:100EA0008083E0910B02F0910C0280818F7D808322
:100EB000E0919C02F0919D02138615861486DF0155
:100EC0001B9633961E92EA17FB07E1F710929A02DF
:100ED00010929B0201E0BE016F5F7F4F80919C02E8
:100EE00090919D020E94D904882309F465C067E0AF
:100EF000CE0101960E94010298858913ECCF809162
:100F00009602811127C080919C0290919D020E94BF
:100F1000BF02BE016F5F7F4F80919C0290919D0246
:100F20000E94A00240E064EB80919C0290919D029F
:100F30000E946C0280919C0290919D020E94190275
:100F4000182F80919C0290919D020E94BF02112354
:100F500009F4BDC1109197028981803109F4C3C1A0
:100F6000CE0101960E944203811718F480919702E6
:100F700009C08981803111F48CE004C0CE01019652
:100F80000E9442038093970280919A028F5F809320
:100F90009A028981883209F49DC138F4803109F4BC
:100FA00099C1823209F097CF95C18B3309F492C170
:100FB000823409F090CF8EC180919A0290E0909394
:100FC000E7018093E60184E291E00E94D90388E37F
:100FD00091E00E94D9036091E6017091E701072E2C
:100FE000000C880B990B0E94AD048FE391E00E94E6
:100FF000860389E491E00E948603C12CD12C7601FE
:101000008091E6019091E701C816D9060CF087C0DF
:1010100062E370E080E090E00E94B7008C2D0E94B7
:101020005B05882351F18CE491E00E94D903C7014C
:10103000B6010E94AD048AE591E00E94D90301EF58
:1010400011E05801F8018081803120F48AE691E0B6
:101050000E94D9030F5F1F4FF501608170E080E0AF
:1010600090E040E10E949803F1E0093F1F0749F733
:1010700089E491E00E9486030CC08CE691E00E9416
:10108000D903C701B6010E94AD0483E891E00E9434
:10109000D9032FEFC21AD20AE20AF20AB1CFE091C5
:1010A0009702E950E33008F056C0F0E0EE0FFF1F62
:1010B000E050FF4F6081718180919902882309F48B
:1010C00063C08091960281115FC08FB7F8948090C1
:1010D000E9019090EA01A090EB01B090EC018FBF84
:1010E0006B01770FEE08FF0880919C0290919D02A2
:1010F0000E941902813091F5C12CD12C760180918A
:10110000E6019091E701C816D9060CF444C068E8DE
:1011100073E180E090E00E94B7000E94F7018091A7
:101120009C0290919D020E94BF0240E06CEC809175
:101130009C0290919D020E946C024091960264E490
:1011400080919C0290919D020E946C028091980275
:10115000882391F2A4CF6EEE72E0AECF2FB7F89451
:101160008091E9019091EA01A091EB01B091EC012D
:101170002FBF8C199D09AE09BF0988159905AA05CD
:10118000BB0508F4B1CFB8CF072E000C880B990B24
:101190000E94B700B1CF8C2D0E945B05882309F413
:1011A00090C08AEB91E00E94D903C701B6010E946A
:1011B000AD0489E491E00E94860380919C029091A5
:1011C0009D020E94BF02882309F48AC0BE016F5F9E
:1011D0007F4F81EF91E00E94F602882309F480C0DE
:1011E00068E0CE0101960E9401029985891378C0BA
:1011F0002A8130E0C901982F8827990F990F990FFC
:10120000698148E0649FB00111249C01262B372B93
:101210008091F1018031C9F4688570E08F81FB0114
:10122000E81BF109CF019695982F88279795879508
:101230000E94B30B60517109207F53E0220F331FCE
:101240005A95E1F7620F731F01C0B9016138F4EEDE
:101250007F077CF0072E000C880B990B0E948C0AEC
:1012600020E030E040E05CE30E94410B4B015C0178
:1012700006C0812C912C8EEFA82E82ECB82E83ED27
:1012800091E00E94D90342E0C501B4010E94DB0352
:101290008CED91E00E94D90326E636E646EE5FE348
:1012A000C501B4010E94410B20E030E040E052E46F
:1012B0000E94780942E00E94DB0389E491E00E94E9
:1012C00086032FEFC21AD20AE20AF20A18CF00935D
:1012D000960240CE80919B028F5F80939B02FBCD54
:1012E00060E874EEB3CF1D3008F040CE45CE5058C4
:1012F000BB27AA270E948F090C94020B0E94F40AB4
:1013000038F00E94FB0A20F039F49F3F19F426F4CC
:101310000C94F10A0EF4E095E7FB0C94EB0AE92F2C
:101320000E94130B58F3BA176207730784079507D7
:1013300020F079F4A6F50C94350B0EF4E0950B2E05
:10134000BA2FA02D0B01B90190010C01CA01A00117
:101350001124FF27591B99F0593F50F4503E68F172
:101360001A16F040A22F232F342F4427585FF3CFB3
:10137000469537952795A795F0405395C9F77EF484
:101380001F16BA0B620B730B840BBAF09150A1F0CD
:10139000FF0FBB1F661F771F881FC2F70EC0BA0F53
:1013A000621F731F841F48F4879577956795B795DB
:1013B000F7959E3F08F0B0CF9395880F08F09927D6
:1013C000EE0F9795879508950E94C70A08F481E06B
:1013D00008950E94FD090C94020B0E94FB0A58F02C
:1013E0000E94F40A40F029F45F3F29F00C94EB0AC4
:1013F00051110C94360B0C94F10A0E94130B68F3F4
:101400009923B1F3552391F3951B550BBB27AA27BD
:1014100062177307840738F09F5F5F4F220F331FF7
:10142000441FAA1FA9F335D00E2E3AF0E0E832D0BF
:1014300091505040E695001CCAF72BD0FE2F29D0C2
:10144000660F771F881FBB1F261737074807AB0794
:10145000B0E809F0BB0B802DBF01FF2793585F4F09
:101460003AF09E3F510578F00C94EB0A0C94360B41
:101470005F3FE4F3983ED4F3869577956795B795EB
:10148000F7959F5FC9F7880F911D9695879597F9F6
:101490000895E1E0660F771F881FBB1F621773076F
:1014A0008407BA0720F0621B730B840BBA0BEE1F84
:1014B00088F7E09508950E941B0B88F09F5798F0DD
:1014C000B92F9927B751B0F0E1F0660F771F881F49
:1014D000991F1AF0BA95C9F714C0B13091F00E9463
:1014E000350BB1E008950C94350B672F782F8827C2
:1014F000B85F39F0B93FCCF3869577956795B3958A
:10150000D9F73EF490958095709561957F4F8F4FF8
:101510009F4F0895E89409C097FB3EF490958095FD
:10152000709561957F4F8F4F9F4F9923A9F0F92FA9
:1015300096E9BB279395F695879577956795B79527
:10154000F111F8CFFAF4BB0F11F460FF1BC06F5F0D
:101550007F4F8F4F9F4F16C0882311F096E911C01F
:10156000772321F09EE8872F762F05C0662371F040
:1015700096E8862F70E060E02AF09A95660F771F54
:10158000881FDAF7880F9695879597F90895990F30
:101590000008550FAA0BE0E8FEEF16161706E8073D
:1015A000F907C0F012161306E407F50798F0621B5E
:1015B000730B840B950B39F40A2661F0232B242B33
:1015C000252B21F408950A2609F4A140A6958FEF52
:1015D000811D811D089597F99F6780E870E060E0A4
:1015E00008959FEF80EC089500240A9416161706BC
:1015F00018060906089500240A9412161306140604
:1016000005060895092E0394000C11F4882352F066
:10161000BB0F40F4BF2B11F460FF04C06F5F7F4F1E
:101620008F4F9F4F089557FD9058440F551F59F005
:101630005F3F71F04795880F97FB991F61F09F3FBF
:1016400079F087950895121613061406551FF2CFE8
:101650004695F1DF08C0161617061806991FF1CF38
:1016600086957105610508940895E894BB2766275F
:101670007727CB0197F908950E94C70A08F48FEFE6
:1016800008950E94540B0C94020B0E94F40A38F047
:101690000E94FB0A20F0952311F00C94EB0A0C94A5
:1016A000F10A11240C94360B0E94130B70F3959FD2
:1016B000C1F3950F50E0551F629FF001729FBB2749
:1016C000F00DB11D639FAA27F00DB11DAA1F649FE5
:1016D0006627B00DA11D661F829F2227B00DA11D98
:1016E000621F739FB00DA11D621F839FA00D611D1E
:1016F000221F749F3327A00D611D231F849F600D3F
:10170000211D822F762F6A2F11249F5750409AF067
:10171000F1F088234AF0EE0FFF1FBB1F661F771FF3
:10172000881F91505040A9F79E3F510580F00C94BE
:10173000EB0A0C94360B5F3FE4F3983ED4F38695A6
:1017400077956795B795F795E7959F5FC1F7FE2B5E
:10175000880F911D9695879597F908950E94C70A5D
:10176000880B990B089597FB072E16F4009407D069
:1017700077FD09D00E94E90B07FC05D03EF4909557
:1017800081959F4F0895709561957F4F0895A1E2CF
:101790001A2EAA1BBB1BFD010DC0AA1FBB1FEE1FEB
:1017A000FF1FA217B307E407F50720F0A21BB30B36
:1017B000E40BF50B661F771F881F991F1A9469F7B2
:1017C00060957095809590959B01AC01BD01CF010E
:1017D0000895AA1BBB1B51E107C0AA1FBB1FA61778
:1017E000B70710F0A61BB70B881F991F5A95A9F7CA
:1017F00080959095BC01CD010895EE0FFF1F0590D7
:10180000F491E02D099481E090E0F8940C94080C98
:04181000F894FFCF7A
:101814005E00BC007701000000008801F1001F0198
:10182400D50150012E0142016E616E00696E6600A1
:101834006F7666004C6F636174696E6720646576C9
:10184400696365732E2E2E00466F756E642000202A
:10185400646576696365732E000D0A00466F756EC4
:101864006420646576696365200020776974682064
:10187400616464726573733A20003000466F756E5C
:10188400642067686F73742064657669636520619A
:101894007420002062757420636F756C64206E6F11
:1018A4007420646574656374206164647265737321
:1018B4002E20436865636B20706F77657220616EBC
:1018C40064206361626C696E670054656D70657253
:1018D400617475726520666F7220646576696365EC
:1018E4003A200054656D7020433A20002054656D01
:0618F4007020463A2000BE
:00000001FF
