:100000000C9472000C949A000C949A000C949A0030
:100010000C949A000C949A000C949A000C949A00F8
:100020000C949A000C949A000C949A000C949A00E8
:100030000C949A000C949A000C949A000C949A00D8
:100040000C9407010C949A000C949A000C949A005A
:100050000C949A000C949A000C949A000C949A00B8
:100060000C949A000C949A000000000023002600D3
:100070002900005EBCE2613FDD83C29C7E20A3FDBF
:100080001F41009D23BE46DB65F88C11AF32CA5775
:10009000E97400000000240027002A00000000008E
:1000A000250028002B0004040404040404040202B4
:1000B00002020202030303030303010204081020E7
:1000C00040800102040810200102040810200000F2
:1000D0000008000201000003040700000000000007
:1000E0000000620911241FBECFEFD8E0DEBFCDBFF4
:1000F00011E0A0E0B1E0E8EBF8E102C005900D925C
:10010000A03EB107D9F722E0A0EEB1E001C01D92F8
:10011000AD32B207E1F710E0C2E7D0E004C02197AA
:10012000FE010E944F0CC137D107C9F70E94DE06BD
:100130000C945A0C0C940000CF92DF92EF92FF9235
:100140000F931F93CF93DF936C017A018B01C0E073
:10015000D0E0CE15DF0581F0D8016D918D01D6017B
:10016000ED91FC910190F081E02DC6010995892B5C
:1001700011F02196EECF7E01C701DF91CF911F9143
:100180000F91FF90EF90DF90CF900895089580E059
:1001900090E008950E94550CCF93DF93EC0160E04E
:1001A0008E810E947A0561E08E810E947A0560E06E
:1001B0008E810E947A058BE891E00197F1F7DF913B
:1001C000CF9108953FB7F8948091F5019091F60191
:1001D000A091F701B091F80126B5A89B05C02F3F6B
:1001E00019F00196A11DB11D3FBFBA2FA92F982F5D
:1001F0008827820F911DA11DB11DBC01CD0142E0D8
:10020000660F771F881F991F4A95D1F708951F928F
:100210000F920FB60F9211242F933F938F939F93BA
:10022000AF93BF938091F1019091F201A091F301FE
:10023000B091F4013091F00123E0230F2D3720F429
:100240000196A11DB11D05C026E8230F0296A11D30
:10025000B11D2093F0018093F1019093F201A093DE
:10026000F301B093F4018091F5019091F601A09112
:10027000F701B091F8010196A11DB11D8093F50120
:100280009093F601A093F701B093F801BF91AF915D
:100290009F918F913F912F910F900FBE0F901F90C4
:1002A0001895CF92DF92EF92FF920F931F93CF9307
:1002B000DF936C017C0187E0E80EF11CC0E0D0E028
:1002C000062F10E0B8010C2E02C0759567950A94B0
:1002D000E2F76170F70181917F010E947A05219612
:1002E000C430D10579F7C601DF91CF911F910F91ED
:1002F000FF90EF90DF90CF900C94CC00CF92DF92E4
:10030000EF92FF920F931F93CF93DF93EC01F62EA2
:10031000642F8C810E947A058D818F3F19F060E0F7
:100320000E947A058F850F2D10E084FF25C06E0195
:1003300087E0C80ED11CE12CF12CB8010E2C02C0B4
:10034000759567950A94E2F76170F60181916F01E6
:100350000E947A05FFEFEF1AFF0A88E0E816F10421
:1003600061F7CE01DF91CF911F910F91FF90EF9038
:10037000DF90CF900C94CC00B80184E07595679520
:100380008A95E1F7CE010E9451016F2DCE01DF91D8
:10039000CF911F910F91FF90EF90DF90CF900C9431
:1003A000510141E00E947E0181E090E00895DC016E
:1003B00080E0615098F02D91982F9227E92FEF70EF
:1003C000F0E0EE58FF4F249192959F70E92FF0E0F6
:1003D000EE57FF4FE491822F8E27EBCF0895FC015B
:1003E00090810180F281E02DF8948181892B8183B5
:1003F0002281892F809528232283A7E0B0E01197DE
:10040000F1F7218182238183A3E2B0E01197F1F714
:1004100080817894EFECF0E03197F1F7982381E058
:1004200009F480E00895FC0190810180F281E02DC3
:10043000892F809560FF12C0F894228182238283E5
:100440008181892B8183A3E2B0E01197F1F782814A
:10045000982B9283789487ED90E011C0F8942281D4
:10046000822382838181892B8183AFEFB0E0119752
:10047000F1F78281982B928378948FE090E0019736
:10048000F1F70895DF92EF92FF920F931F93CF93AE
:10049000DF93EC01D62EE42E08E010E0FF24F39465
:1004A00061E08D2D8F2109F460E0CE010E941302DE
:1004B000FF0C01501109A1F7E11010C0F894E98177
:1004C000FA8191818881809589238183E981FA81EC
:1004D000928188818095892382837894DF91CF915E
:1004E0001F910F91FF90EF90DF900895EF92FF9290
:1004F0000F931F93CF93DF938C017B0140E065E561
:100500000E944202E70188E0E80EF11C699140E098
:10051000C8010E944202CE15DF05C1F7DF91CF91DD
:100520001F910F91FF90EF900895DC012C9111968F
:10053000ED91FC911297F8948181922F90958923E7
:10054000818378948DE743E050E0815021F1DA0116
:100550001197F1F730813223C1F3F8948281892316
:1005600082838181822B81837894ABE7B7E01197F6
:10057000F1F7F89481819823918383E191E00197C9
:10058000F1F78081282381E009F080E07894E3E6A8
:10059000F6E03197F1F7089540E0682F85E192E0A9
:1005A0000C947E0181E00E94CC028BE39FE10197D5
:1005B000F1F70895009769F0FC0101900020E9F738
:1005C0003197AF01481B590BBC0185E192E00C94B7
:1005D0009C0080E090E008958F929F92AF92BF922E
:1005E0000F931F93CF93DF93CDB7DEB7A1970FB6CD
:1005F000F894DEBF0FBECDBF19A2423008F44AE026
:100600008E010F5D1F4F842E912CA12CB12CA501C2
:1006100094010E94190CE62FB901CA010150110979
:10062000EA3014F4E05D01C0E95CD801EC93232BBF
:10063000242B252B61F7C8010E94DA02A1960FB680
:10064000F894DEBF0FBECDBFDF91CF911F910F9108
:10065000BF90AF909F908F9008958F929F92AF928E
:10066000BF92CF92DF92EF92FF920F931F93CF939F
:10067000DF936B017C01142F9B01AC010E94000CE5
:10068000882319F084ED91E027C046015701E894D2
:10069000B7F82FEF3FEF4FE75FE7C501B4010E94C6
:1006A000000C81110DC02FEF3FEF4FE75FE7C50151
:1006B000B4010E94360A18161CF488ED91E00CC0B3
:1006C0002FEF3FEF4FE75FE4C701B6010E948E0BAB
:1006D000181684F48CED91E0DF91CF911F910F916A
:1006E000FF90EF90DF90CF90BF90AF909F908F9052
:1006F0000C94DA022FEF3FEF4FE75FECC701B60132
:100700000E94360A87FDE6CF20E030E0A901C7014C
:10071000B6010E94360A87FF0DC041E06DE285E117
:1007200092E00E947E01F7FAF094F7F8F094C1E0AD
:10073000D0E002C0C0E0D0E000E060E070E080E027
:100740009FE3101741F020E030E040E251E40E94C6
:100750003B0A0F5FF6CFA70196010E94CA096B0101
:100760007C010E94AD0A4B015C014AE00E94EC0250
:10077000C80FD91F1123B9F1C501B4010E94DC0AC9
:100780009B01AC01C701B6010E94C9096B017C0144
:1007900041E06EE285E192E00E947E01219620E038
:1007A00030E040E251E4C701B6010E94930B4B01D7
:1007B0005C010E94AD0A6B01E12CF12C4AE0C701FB
:1007C000B6010E94EC02C80FD91FC701B6010E94F2
:1007D000DC0A9B01AC01C501B4010E94C9096B018F
:1007E0007C011150E1F6CE01DF91CF911F910F9165
:1007F000FF90EF90DF90CF90BF90AF909F908F9041
:1008000008950C94DA02AF92BF92CF92DF92EF92EA
:10081000FF920F931F93CF93DF938B01BC018091C5
:100820000702909108020E94760240E06EEB8091F0
:100830000702909108020E944202E801680189E0E3
:10084000C80ED11CA0900702B090080288E0E82EE4
:10085000F12C10E001E0C5010E94EF018111102B85
:10086000000F81E0E81AF108B1F71993CC16DD0604
:1008700049F780910702909108020E94950291E049
:10088000813009F090E0892FDF91CF911F910F9176
:10089000FF90EF90DF90CF90BF90AF900895CF92F0
:1008A000DF92EF92FF9297FF18C06B017C0141E04D
:1008B0006DE285E192E00E947E0166277727CB01F9
:1008C0006C197D098E099F094AE00E94EC0201968D
:1008D000FF90EF90DF90CF9008954AE0FF90EF9067
:1008E000DF90CF900C94EC02BF92CF92DF92EF9208
:1008F000FF920F931F93CF93DF93EC016B018D85D4
:10090000811105C0CE010E949502811105C01B8690
:100910001D861C8680E060C040E060EFCE010E9432
:10092000420201E0E12CB12C11E0CE010E94EF0166
:10093000F82ECE010E94EF0191E0F91203C0813040
:10094000B1F434C02E2D30E0F8121BC08B8518177F
:1009500038F4FE01E20FF31F8381802341F402C0CB
:10096000811729F0F12C193058F41C8709C0FE01B9
:10097000EE0DF11D8381802B8383FF24F39409C046
:10098000B12EFE01E20FF31F9381802F8095892302
:1009900083836F2DCE010E9413021F5F000F11F49D
:1009A000E39401E087E08E1508F0BFCF113408F41E
:1009B000AECFBB86B11002C081E08D878B818823CA
:1009C00009F4A5CFDE011396F6012B968D91819344
:1009D000CA17DB07D9F781E0DF91CF911F910F9103
:1009E000FF90EF90DF90CF90BF9008951F93CF932B
:1009F000DF93182FE0910702F09108021386158605
:100A00001486DF011B9633961E92EA17FB07E1F767
:100A1000C0E069EF71E080910702909108020E94A6
:100A20007404D82F882371F01C1309C067E089EF84
:100A300091E00E94D70190910002891721F0CF5FC9
:100A40001C1738F7D0E08D2FDF91CF911F910895BB
:100A5000E1E0809128028111E0E0E195F0E0EB5EB9
:100A6000FD4F84898F5F80680C94CC020F931F9395
:100A7000CF93DF93CDB7DEB729970FB6F894DEBFDB
:100A80000FBECDBF8C0180910702909108020E9499
:100A90009502882309F1BE016F5F7F4FC8010E9454
:100AA00003048823C9F068E0CE0101960E94D701B3
:100AB0009985891311C08D818F3361F020F48F31B6
:100AC00059F489E00CC08F3519F08F3739F004C024
:100AD0008BE005C08AE003C080E001C08CE029966D
:100AE0000FB6F894DEBF0FBECDBFDF91CF911F913F
:100AF0000F91089590E0FC01E253FF4F2491FC0117
:100B0000E654FF4F3491FC01EA55FF4FE491EE2388
:100B100009F43CC0222339F1233091F038F421301C
:100B2000A9F0223001F584B58F7D12C0273091F0F5
:100B30002830A1F02430B9F4809180008F7D03C06B
:100B4000809180008F77809380000DC084B58F776F
:100B500084BD09C08091B0008F7703C08091B00040
:100B60008F7D8093B000F0E0EE0FFF1FE456FF4F43
:100B7000A591B4919FB7F894611104C08C91309500
:100B8000382302C0EC913E2B3C939FBF0895CF9336
:100B9000DF9390E0FC01E654FF4F2491FC01EA55FD
:100BA000FF4F8491882361F190E0880F991FFC0129
:100BB000EE56FF4FC591D491FC01E456FF4FA5912D
:100BC000B491611109C09FB7F89488812095822360
:100BD0008883EC912E230BC0623061F49FB7F894A8
:100BE0008881322F309583238883EC912E2B2C9390
:100BF0009FBF06C08FB7F894E8812E2B28838FBF44
:100C0000DF91CF910895CF93DF93823028F09091B8
:100C10002402986090932402809328021092290263
:100C200080E480932A0280E180932B0280E5809308
:100C30002C0261E0809119020E94C70580911A027E
:100C40008F3F19F061E00E94C70561E080911B02AF
:100C50000E94C705C5E1D2E09E0125513240809136
:100C6000240284FD03C084E090E002C088E090E0AC
:100C70002196281739072CF461E08E810E94C70560
:100C8000EBCF8BE39DE00197F1F760E080911902D3
:100C90000E947A0560E080911B020E947A05809193
:100CA0001A028F3F19F060E00E947A0580912402B9
:100CB00084FD20C063E085E192E00E945101CBE415
:100CC000D6E4CE010197F1F763E085E192E00E945E
:100CD00051012197F1F763E085E192E00E94510113
:100CE00083E592E00197F1F762E085E192E00E94EE
:100CF000510115C080620E94CC028BE496E40197FA
:100D0000F1F78091240280620E94CC0283E592E098
:100D10000197F1F78091240280620E94CC028091B9
:100D2000240280620E94CC0284E0809325028CE041
:100D30000E94CC020E94D20282E08093260286E0CA
:100D4000DF91CF910C94CC028F929F92AF92BF9281
:100D5000CF92DF92EF92FF926B017C010E94E20042
:100D60004B015C01C114D104E104F104F1F00E94D3
:100D7000E200DC01CB0188199909AA09BB09883E68
:100D80009340A105B10570F321E0C21AD108E10832
:100D9000F10888EE880E83E0981EA11CB11CC114D6
:100DA000D104E104F10419F7DDCFFF90EF90DF905B
:100DB000CF90BF90AF909F908F900895CF93DF9387
:100DC000CDB7DEB729970FB6F894DEBF0FBECDBF03
:100DD000789484B5826084BD84B5816084BD85B516
:100DE000826085BD85B5816085BD80916E00816022
:100DF00080936E00109281008091810082608093C8
:100E000081008091810081608093810080918000C9
:100E10008160809380008091B10084608093B100F4
:100E20008091B00081608093B00080917A008460EE
:100E300080937A0080917A00826080937A0080911A
:100E40007A00816080937A0080917A008068809334
:100E50007A001092C100E0910702F0910802138617
:100E600015861486DF011B9633961E92EA17FB0740
:100E7000E1F7109205021092060201E0BE016F5FD9
:100E80007F4F80910702909108020E94740488238A
:100E900009F465C067E0CE0101960E94D7019885EC
:100EA0008913ECCF80910102811127C08091070244
:100EB000909108020E949502BE016F5F7F4F809162
:100EC0000702909108020E94760240E064EB809154
:100ED0000702909108020E944202809107029091BD
:100EE00008020E94EF01182F8091070290910802DA
:100EF0000E949502112309F4D5C110910202898143
:100F0000803109F4DBC1CE0101960E9436058117BC
:100F100018F48091020209C08981803111F48CE0BB
:100F200004C0CE0101960E94360580930202809192
:100F300005028F5F809305028981883209F4B5C16B
:100F400038F4803109F4B1C1823209F097CFADC1D4
:100F50008B3309F4AAC1823409F090CFA6C182E094
:100F60000E9403060E9428058091050290E090935C
:100F7000EF018093EE010E94280582E191E00E943A
:100F8000010486E291E00E9401046091EE017091FB
:100F9000EF01072E000C880B990B0E944F048DE285
:100FA00091E00E94DA0287E391E00E94DA0268EEA3
:100FB00073E080E090E00E94A406C12CD12C760161
:100FC0008091EE019091EF01C816D9060CF04BC04C
:100FD0000E94D2020E94280562E370E080E090E067
:100FE0000E94A4068C2D0E94F604882351F18AE306
:100FF00091E00E940104C701B6010E944F0488E4F9
:1010000091E00E94010409EF11E05801F80180818C
:10101000803120F488E591E00E9401040F5F1F4FAA
:10102000F501608170E080E090E040E10E94EC0218
:10103000F2E001301F0749F787E391E00E94DA02EE
:101040000CC08AE591E00E940104C701B6010E942C
:101050004F0481E791E00E9401042FEFC21AD20AE7
:10106000E20AF20AADCF00E010E00E94D2020E9434
:10107000280580910702909108020E94950240E0A5
:101080006CEC80910702909108020E94420240910C
:10109000010264E480910702909108020E944202DA
:1010A00080910302882309F449C0E0910202E950CB
:1010B000E33040F4F0E0EE0FFF1FE45FFE4F60818D
:1010C000718102C06EEE72E080910402882381F18A
:1010D0008091010281112CC08FB7F8948090F101AA
:1010E0009090F201A090F301B090F4018FBF6B01DA
:1010F000770FEE08FF0880910702909108020E9486
:10110000EF018130D9F02FB7F8948091F1019091DF
:10111000F201A091F301B091F4012FBF8C199D0948
:10112000AE09BF0988159905AA05BB0520F306C0BD
:10113000072E000C880B990B0E94A406C12CD12C01
:1011400076018091EE019091EF01C816D9060CF05E
:101150009CC08C2D0E94F604882309F490C088EA74
:1011600091E00E940104C701B6010E944F0487E389
:1011700091E00E94DA0280910702909108020E9499
:101180009502882309F497C0BE016F5F7F4F89EFF6
:1011900091E00E940304882309F48DC068E0CE0129
:1011A00001960E94D7019985891385C02A8130E074
:1011B000C901982F8827990F990F990F698148E0E5
:1011C000649FB00111249C01262B372B8091F901DB
:1011D0008031C9F4688570E08F81FB01E81BF1095B
:1011E000CF019695982F8827979587950E94050C93
:1011F00060517109207F53E0220F331F5A95E1F7A8
:10120000620F731F01C0B9016138F4EE7F077CF0F3
:10121000072E000C880B990B0E94DE0A20E030E0BC
:1012200040E05CE30E94930B4B015C0106C0812C03
:10123000912C8EEFA82E82ECB82E81EC91E00E94CA
:10124000010442E0C501B4010E942D038AEC91E043
:101250000E94010426E636E646EE5FE3C501B401CE
:101260000E94930B20E030E040E052E40E94CA0963
:1012700042E00E942D0387E391E00E94DA022FEF03
:10128000C21AD20AE20AF20A5CCF68E873E180E08F
:1012900090E00E94A4060115110509F4E6CE0E9413
:1012A0000000E3CE0093010228CE809106028F5FFA
:1012B00080930602E3CD60E874EEA6CF1D3008F0FF
:1012C00028CE2DCE60E084E00E94C705EEEBF0E072
:1012D000E491E093E001EAEAF0E0E491F0E0EE0F5F
:1012E000FF1FE859FF4F859194919093E2018093FD
:1012F000E1011092EB011092ED011092EC01EBEE86
:10130000F1E0129281E0E33EF807D9F780EE91E038
:101310009093080280930702109205021092060231
:101320001092010289E08093020291E090930302FF
:101330009093040210921402109213021092180259
:101340001092170224E031E0309316022093150228
:101350009DE0909319029FEF90931A029CE0909366
:101360001B029BE090931C029AE090931D028093D5
:101370001E0288E080931F02109220021092210228
:1013800010922202109223021092240281E00C9407
:1013900003065058BB27AA270E94E1090C94540B5E
:1013A0000E94460B38F00E944D0B20F039F49F3F0D
:1013B00019F426F40C94430B0EF4E095E7FB0C941F
:1013C0003D0BE92F0E94650B58F3BA1762077307AC
:1013D0008407950720F079F4A6F50C94870B0EF49A
:1013E000E0950B2EBA2FA02D0B01B90190010C0135
:1013F000CA01A0011124FF27591B99F0593F50F44D
:10140000503E68F11A16F040A22F232F342F4427A4
:10141000585FF3CF469537952795A795F04053959C
:10142000C9F77EF41F16BA0B620B730B840BBAF06C
:101430009150A1F0FF0FBB1F661F771F881FC2F7D7
:101440000EC0BA0F621F731F841F48F487957795EB
:101450006795B795F7959E3F08F0B0CF9395880FA5
:1014600008F09927EE0F9795879508950E94190B1C
:1014700008F481E008950E944F0A0C94540B0E94D6
:101480004D0B58F00E94460B40F029F45F3F29F0C5
:101490000C943D0B51110C94880B0C94430B0E943F
:1014A000650B68F39923B1F3552391F3951B550B05
:1014B000BB27AA2762177307840738F09F5F5F4F27
:1014C000220F331F441FAA1FA9F335D00E2E3AF066
:1014D000E0E832D091505040E695001CCAF72BD07E
:1014E000FE2F29D0660F771F881FBB1F26173707CF
:1014F0004807AB07B0E809F0BB0B802DBF01FF2701
:1015000093585F4F3AF09E3F510578F00C943D0B95
:101510000C94880B5F3FE4F3983ED4F3869577955F
:101520006795B795F7959F5FC9F7880F911D9695B9
:10153000879597F90895E1E0660F771F881FBB1F15
:10154000621773078407BA0720F0621B730B840BC2
:10155000BA0BEE1F88F7E09508950E946D0B88F096
:101560009F5798F0B92F9927B751B0F0E1F0660F67
:10157000771F881F991F1AF0BA95C9F714C0B130A8
:1015800091F00E94870BB1E008950C94870B672FB0
:10159000782F8827B85F39F0B93FCCF386957795D7
:1015A0006795B395D9F73EF49095809570956195C0
:1015B0007F4F8F4F9F4F0895E89409C097FB3EF4EB
:1015C00090958095709561957F4F8F4F9F4F992390
:1015D000A9F0F92F96E9BB279395F695879577950E
:1015E0006795B795F111F8CFFAF4BB0F11F460FFCE
:1015F0001BC06F5F7F4F8F4F9F4F16C0882311F026
:1016000096E911C0772321F09EE8872F762F05C039
:10161000662371F096E8862F70E060E02AF09A95D4
:10162000660F771F881FDAF7880F9695879597F9C9
:101630000895990F0008550FAA0BE0E8FEEF161663
:101640001706E807F907C0F012161306E407F507B6
:1016500098F0621B730B840B950B39F40A2661F02A
:10166000232B242B252B21F408950A2609F4A140CD
:10167000A6958FEF811D811D089597F99F6780E8DA
:1016800070E060E008959FEF80EC089500240A94D4
:101690001616170618060906089500240A9412164D
:1016A0001306140605060895092E0394000C11F480
:1016B000882352F0BB0F40F4BF2B11F460FF04C02D
:1016C0006F5F7F4F8F4F9F4F089557FD9058440F86
:1016D000551F59F05F3F71F04795880F97FB991F91
:1016E00061F09F3F79F0879508951216130614064E
:1016F000551FF2CF4695F1DF08C0161617061806DB
:10170000991FF1CF86957105610508940895E894B5
:10171000BB2766277727CB0197F908950E94190BFD
:1017200008F48FEF08950E94A60B0C94540B0E94AE
:10173000460B38F00E944D0B20F0952311F00C94CD
:101740003D0B0C94430B11240C94880B0E94650BE9
:1017500070F3959FC1F3950F50E0551F629FF00104
:10176000729FBB27F00DB11D639FAA27F00DB11D1D
:10177000AA1F649F6627B00DA11D661F829F2227A6
:10178000B00DA11D621F739FB00DA11D621F839F2D
:10179000A00D611D221F749F3327A00D611D231F03
:1017A000849F600D211D822F762F6A2F11249F5751
:1017B00050409AF0F1F088234AF0EE0FFF1FBB1F54
:1017C000661F771F881F91505040A9F79E3F510513
:1017D00080F00C943D0B0C94880B5F3FE4F3983E33
:1017E000D4F3869577956795B795F795E7959F5FBD
:1017F000C1F7FE2B880F911D9695879597F908954F
:101800000E94190B880B990B089597FB072E16F46D
:10181000009407D077FD09D00E943B0C07FC05D04F
:101820003EF4909581959F4F0895709561957F4FF7
:101830000895A1E21A2EAA1BBB1BFD010DC0AA1F11
:10184000BB1FEE1FFF1FA217B307E407F50720F029
:10185000A21BB30BE40BF50B661F771F881F991FA4
:101860001A9469F760957095809590959B01AC01ED
:10187000BD01CF010895AA1BBB1B51E107C0AA1FE0
:10188000BB1FA617B70710F0A61BB70B881F991F21
:101890005A95A9F780959095BC01CD010895EE0F5A
:1018A000FF1F0590F491E02D099481E090E0F894F9
:0818B0000C945A0CF894FFCFD0
:1018B80000000000D1019C00C700C6005E00BC000B
:1018C80077014C6F636174696E672064657669633C
:1018D80065732E2E2E00466F756E64200020646599
:1018E80076696365732E000D0A00466F756E642075
:1018F800646576696365200020776974682061648F
:1019080064726573733A20003000466F756E642008
:1019180067686F73742064657669636520617420F5
:10192800002062757420636F756C64206E6F74207C
:1019380064657465637420616464726573732E20D2
:10194800436865636B20706F77657220616E6420F1
:101958006361626C696E670054656D70657261746D
:1019680075726520666F72206465766963653A20D2
:101978000054656D7020433A20002054656D702036
:10198800463A20006E616E00696E66006F766600EA
:00000001FF
